:020000040000FA
:0400000007EF00F016
:0A0008005F8206ED1AF0E2EF19F036
:10080000000000803F000020410000C84200007A44
:100810004400401C460050C3470024744980961889
:100820004B20BCBE4C286B6E4EF9021550EC78ADD7
:1008300060CAF249710000803FCDCCCC3D0AD7237D
:100840003C6F12833A17B7D138ACC52737BD37860E
:100850003595BFD63377CC2B325F708930FFE6DB1E
:100860002E08E53C1E6042A20D010000000A0000B7
:100870000064000000E803000010270000A08601CB
:100880000040420F008096980000E1F50500CA9AEA
:100890003B55736F20646F2053656E736F722055E4
:1008A0006C7472617373F46E69636F0A0D000A0DE4
:1008B00044697374616E6369613A2025332E326630
:0508C00020636D000043
:1008C600510E0001A76F000EA86FDFEF09F0250E8D
:1008D600BD19D8B471EF04F073EF04F07DEF04F0A6
:1008E6004DC0D9FF4EC0DAFFBDC0DFFF4D4A4E2ACC
:1008F600DFEF09F0000EB06F000EAF6F000EAE6FA7
:10090600000EAD6F4FC0F6FF50C0F7FF0800F55060
:10091600A2EC19F0D8A092EF04F094EF04F0CDEF1A
:1009260004F0000E0001B06F000EAF6FAFC001F013
:10093600B0C002F0000E046E0A0E036ECFEC19F082
:1009460001C0AFF002C0B0F0D00E556EFF0E566E6D
:100956004FC0F6FF50C0F7FF0800F550576E586AB3
:10096600555057265650582257500001AF27585019
:10097600B0234F4A502A4FC0F6FF50C0F7FF080079
:10098600F550A2EC19F0D8B0CBEF04F0CDEF04F09F
:1009960099EF04F04FC0F6FF50C0F7FF0800F5507E
:1009A6002E0AD8A4D9EF04F0DBEF04F01BEF05F014
:1009B6000001AE8D4F4A502A000EBC6F000EBB6F71
:1009C6000AEF05F0BBC001F0BCC002F0000E046ED9
:1009D6000A0E036ECFEC19F001C0BBF002C0BCF0EA
:1009E600D00E556EFF0E566E4FC0F6FF50C0F7FF85
:1009F6000800F550576E586A5550572656505822DB
:100A060057500001BB275850BC234F4A502A4FC0AD
:100A1600F6FF50C0F7FF0800F550A2EC19F0D8B069
:100A260017EF05F019EF05F0E5EF04F026EF05F0F6
:100A3600000E0001BC6F000EBB6FAE8926EF05F0FD
:100A4600AE853BEF05F04FC0F6FF50C0F7FF4F4AAB
:100A5600502A0800F5CFBDF00001BD51000AD8B4F8
:100A6600F0EF09F0660AD8B423EF05F0DFEF09F0DE
:100A7600070EAE15D8B442EF05F044EF05F013EFBC
:100A860009F0AEA949EF05F04BEF05F04FEF05F081
:100A9600000EBC6F060EBB6FA7C0D9FFA8C0DAFF59
:100AA600DECFB7F0DECFB8F0DECFB9F0DECFBAF0EA
:100AB600040EA727000EA823BABF66EF05F064EF61
:100AC60005F07BEF05F0B7C001F0B8C002F0B9C081
:100AD60003F0BAC004F086EC19F001C0B7F002C00A
:100AE600B8F003C0B9F004C0BAF0030E0001AD13AC
:100AF600000EB66F000EB56FB7C001F0B8C002F0B9
:100B0600B9C003F0BAC004F0000E056E000E066E02
:100B1600000E076E000E086E70EC17F0D8B096EF58
:100B260005F098EF05F02BEF06F00001B935BA3560
:100B3600820FB56FB66BFF0EB623B507D8A0B60702
:100B4600B5C001F0B6C002F0000E046E030E036ECF
:100B5600CFEC19F001C0B5F002C0B6F0B5C007F091
:100B6600B6C008F0000E0A6E0A0E096EB6EC16F054
:100B760007C0B5F008C0B6F00001B6BFC7EF05F074
:100B8600C5EF05F0CAEF05F0B507D8A0B607B55111
:100B960000086CEC0EF028C0B1F029C0B2F02AC0F3
:100BA600B3F02BC0B4F0B1C00FF0B2C010F0B3C0B8
:100BB60011F0B4C012F0B7C013F0B8C014F0B9C049
:100BC60015F0BAC016F057EC0CF00FC0B1F010C01B
:100BD600B2F011C0B3F012C0B4F0B1C001F0B2C0AF
:100BE60002F0B3C003F0B4C004F0000E056E000EB0
:100BF600066E800E076E3F0E086E34EC16F0D8B007
:100C060007EF06F009EF06F00FEF06F00001B50753
:100C1600D8A0B6072BEF06F0B1C001F0B2C002F0C3
:100C2600B3C003F0B4C004F0000E056E000E066EED
:100C3600200E076E410E086E34EC16F0D8A026EF93
:100C460006F028EF06F02BEF06F00001B54BB62BA9
:100C56000001BCBF3AEF06F0BC5107E10D0EBB5DCB
:100C6600D8B038EF06F03AEF06F057EF06F0B7C007
:100C760035F0B8C036F0B9C037F0BAC038F0BB515D
:100C860072EC10F028C039F029C03AF02AC03BF0C7
:100C96002BC03CF0F7EC09F035C0B7F036C0B8F021
:100CA60037C0B9F038C0BAF00001B6BF66EF06F03B
:100CB600B65107E10A0EB55DD8B064EF06F066EFEF
:100CC60006F0A3EF06F0B7C001F0B8C002F0B9C055
:100CD60003F0BAC004F0000E056E000E066E000E9C
:100CE600076E000E086E70EC17F0D8B07DEF06F0B8
:100CF6007FEF06F0F8EF06F0B7C031F0B8C032F07B
:100D0600B9C033F0BAC034F0B1EC15F0315032103E
:100D160033103410D8A492EF06F094EF06F0F8EFF3
:100D260006F00001B6BFA1EF06F0B65109E1020ECA
:100D3600B55DD8A0A1EF06F0A3EF06F0F8EF06F038
:100D4600B1C001F0B2C002F0B3C003F0B4C004F009
:100D56005F0E056E700E066E890E076E400E086EEB
:100D660034EC16F0D8B0BAEF06F0BCEF06F0C3EFDD
:100D760006F00001F70EB527FF0EB623C8EF06F002
:100D86000001F80EB527FF0EB623B5516CEC0EF038
:100D960028C0B1F029C0B2F02AC0B3F02BC0B4F01D
:100DA600B7C001F0B8C002F0B9C003F0BAC004F091
:100DB600B1C005F0B2C006F0B3C007F0B4C008F089
:100DC60085EC14F001C0A9F002C0AAF003C0ABF094
:100DD60004C0ACF0000E0001B76F000EB86F000E35
:100DE600B96F000EBA6F34EF07F0B7C031F0B8C074
:100DF60032F0B9C033F0BAC034F0B1EC15F031C0FE
:100E0600A9F032C0AAF033C0ABF034C0ACF0B7C022
:100E160045F0B8C046F0B9C047F0BAC048F0A9C01E
:100E260001F0AAC002F0ABC003F0ACC004F0000EA3
:100E360000EC13F001C049F002C04AF003C04BF0C9
:100E460004C04CF063EC19F045C0B7F046C0B8F0EA
:100E560047C0B9F048C0BAF0000E0001B66F000EE8
:100E6600B56F010EBD6FBD51040D690EF324F66E0C
:100E7600080EF420F76E0900F550A95D0900F5503B
:100E8600AA590900F550AB590900F550AC59D8B02C
:100E96004FEF07F051EF07F053EF07F05DEF07F064
:100EA600BD2B0A0EBD19D8A45BEF07F05DEF07F066
:100EB60036EF07F0BD51BB25556E000EBC21566EB0
:100EC600B5515526B65156225550AF5F5650B05BB8
:100ED600BB51BC11D8B472EF07F074EF07F077EF8F
:100EE60007F0AF07D8A0B007030EAD15556E000E7C
:100EF600AE15566E55505610D8B484EF07F086EFEF
:100F060007F095EF07F0AF07D8A0B00795EF07F009
:100F16004DC0D9FF4EC0DAFF200EDF6E4D4A4E2A75
:100F260086EF07F0B0BFA2EF07F0B05106E1AF05BC
:100F3600D8B0A0EF07F0A2EF07F08BEF07F0030E93
:100F4600AD15556E000EAE15566E55505610D8B4EA
:100F5600AFEF07F0B1EF07F005EF08F04DC0D9FF8E
:100F66004EC0DAFF2D0EDF6E4D4A4E2A05EF08F011
:100F7600A9C001F0AAC002F0ABC003F0ACC004F0F7
:100F8600BD51040D690EF324F66E080EF420F76EBB
:100F96000900F5CF05F00900F5CF06F00900F5CFF9
:100FA60007F00A00F5CF08F0C5EC17F001C0B1F064
:100FB60002C0B2F003C0B3F004C0B4F0B1C001F097
:100FC600B2C002F0B3C003F0B4C004F00A0E056E5E
:100FD600000E066E000E076E000E086E5DEC18F031
:100FE60001C0B1F002C0B2F003C0B3F004C0B4F067
:100FF6000001B151300F4DC0D9FF4EC0DAFFDF6E90
:10100600B7EF07F0BD07BD29D8A40CEF08F00EEF27
:1010160008F0BBEF07F01BEF08F04DC0D9FF4EC03C
:10102600DAFF300EDF6E4D4A4E2AB507D8A0B60756
:10103600B6BF28EF08F0B65106E1B505D8B026EFE1
:1010460008F028EF08F010EF08F0BCBF34EF08F006
:10105600BC5109E1090EBB5DD8A034EF08F036EFAC
:1010660008F03AEF08F0080EBD6F3CEF08F0BBC081
:10107600BDF0BD51BB5F000EBC5BBD51D8B446EFA1
:1010860008F048EF08F050EF08F04DC0D9FF4EC009
:10109600DAFF2E0EDF6E4D4A4E2ABD516CEC0EF075
:1010A60028C0A3F029C0A4F02AC0A5F02BC0A6F042
:1010B600B7C013F0B8C014F0B9C015F0BAC016F036
:1010C600A3C00FF0A4C010F0A5C011F0A6C012F086
:1010D60057EC0CF00FC031F010C032F011C033F0F5
:1010E60012C034F0B1EC15F031C0A9F032C0AAF04C
:1010F60033C0ABF034C0ACF0F1EF08F0A9C001F09A
:10110600AAC002F0ABC003F0ACC004F0BD51040DA0
:10111600690EF324F66E080EF420F76E0900F5CF7B
:1011260005F00900F5CF06F00900F5CF07F00A0033
:10113600F5CF08F0C5EC17F001C0B1F002C0B2F06F
:1011460003C0B3F004C0B4F0B1C001F0B2C002F005
:10115600B3C003F0B4C004F00A0E056E000E066EAE
:10116600000E076E000E086E5DEC18F001C0B1F0BF
:1011760002C0B2F003C0B3F004C0B4F00001B15134
:10118600300F4DC0D9FF4EC0DAFFDF6E4D4A4E2AF2
:10119600A9C001F0AAC002F0ABC003F0ACC004F0D5
:1011A600BD51040D690EF324F66E080EF420F76E99
:1011B6000900F5CF05F00900F5CF06F00900F5CFD7
:1011C60007F00A00F5CF08F05DEC18F001C0A9F0B1
:1011D60002C0AAF003C0ABF004C0ACF00001BD072A
:1011E600BD29D8A4F9EF08F0FBEF08F081EF08F06D
:1011F60008EF09F04DC0D9FF4EC0DAFF300EDF6EA2
:101206004D4A4E2ABB07D8A0BC07BB51BC11D8A477
:101216000FEF09F011EF09F0FDEF08F0DFEF09F02D
:10122600BB51BC11D8A41AEF09F01CEF09F029EF45
:1012360009F0A951AA11AB11AC11D8A425EF09F0F8
:1012460027EF09F029EF09F0BB4BBC2BBD51556EBA
:10125600566ABB51555C5650800A576EBC51800A7F
:101266005758D8B039EF09F03BEF09F03FEF09F0D6
:10127600BBC0BDF054EF09F0BD51556E566A5550CE
:10128600BB5DBC51800A576E5650800A5758D8B07D
:101296004FEF09F051EF09F054EF09F0BDC0BBF074
:1012A600BC6BAF51B011D8B45BEF09F05DEF09F03C
:1012B6006FEF09F0030EAD15556E000EAE15566EA6
:1012C60055505610D8B46AEF09F06CEF09F06FEF7D
:1012D60009F0AF07D8A0B007AEAD74EF09F076EF0E
:1012E60009F08FEF09F0AF51BB5DBC51800A556E16
:1012F600B051800A5558D8B083EF09F085EF09F050
:101306008BEF09F0BB51AF5FBC51B05B8FEF09F0BB
:10131600000EB06F000EAF6FBD51556E566AAF51DD
:10132600555C5650800A576EB051800A5758D8B04F
:101336009FEF09F0A1EF09F0A7EF09F0BD51AF5FEC
:10134600000EB05BABEF09F0000EB06F000EAF6F92
:10135600AF51B011D8B4B2EF09F0B4EF09F0C8EF4D
:1013660009F04DC0D9FF4EC0DAFF200EDF6E4D4AA0
:101376004E2AAF07D8A0B007AF51B011D8A4C6EF18
:1013860009F0C8EF09F0B4EF09F0030EAD15556E7C
:10139600000EAE15566E55505610D8B4D5EF09F05E
:1013A600D7EF09F0DFEF09F04DC0D9FF4EC0DAFFE5
:1013B6002D0EDF6E79EF04F04FC0F6FF50C0F7FF39
:1013C6004F4A502A0800F5CFBDF0BD51D8A4EEEF24
:1013D60009F0F0EF09F06AEF04F04DC0D9FF4EC0F6
:1013E600DAFF000EDF6E12003850800B416E385067
:1013F6003824436E37AE02EF0AF004EF0AF005EF29
:101406000AF043804350D8B40BEF0AF00DEF0AF010
:1014160022EF0AF04328D8A413EF0AF015EF0AF0DA
:101426001DEF0AF0000E356E000E366E000E376E9A
:10143600000E386E378E000E386E2AEF0AF0000E58
:10144600356E000E366E000E376E000E386E3C504E
:10145600800B426E41504218D8B434EF0AF036EF92
:101466000AF037EF0AF0418C3C503C24426E3BAE0A
:101476003FEF0AF041EF0AF042EF0AF04280425095
:10148600D8B448EF0AF04AEF0AF05FEF0AF04228B4
:10149600D8A450EF0AF052EF0AF05AEF0AF0000E05
:1014A600396E000E3A6E000E3B6E000E3C6E3B8EA1
:1014B600000E3C6E67EF0AF0000E396E000E3A6EB3
:1014C600000E3B6E000E3C6E4350425CD8B06EEF91
:1014D6000AF070EF0AF097EF0AF041AC75EF0AF0E8
:1014E60077EF0AF079EF0AF0800E411A43C044F014
:1014F60042C043F044C042F035C044F039C035F034
:1015060044C039F036C044F03AC036F044C03AF030
:1015160037C044F03BC037F044C03BF038C044F01D
:101526003CC038F044C03CF0000E446E435042C00C
:101536003DF03E6A3D5E000E3E5A3EBEACEF0AF0FE
:101546003E5009E11A0E3D5CD8A0ACEF0AF0AEEFB2
:101556000AF0E5EF0AF03550361037103810D8A4E7
:10156600B7EF0AF0BAEF0AF0010EBBEF0AF0000E71
:10157600446E000E356E000E366E000E376E000E8F
:10158600386E42C043F0EEEF0AF044A0CDEF0AF009
:10159600CFEF0AF0D5EF0AF0D89044300109446E37
:1015A600D7EF0AF0D890443235A0DCEF0AF0DEEF30
:1015B6000AF0DFEF0AF0448E3834383237323632EA
:1015C6003532432A4250435CD8A0ECEF0AF0EEEFE6
:1015D6000AF0C8EF0AF041BCF3EF0AF0F5EF0AF0A3
:1015E60035EF0BF04350D8A4FBEF0AF0FDEF0AF0FD
:1015F60007EF0BF0000E356E000E366E000E376EDE
:10160600000E386E56EF0CF0395035263A50362219
:101616003B5037223C50382238A014EF0BF016EF1F
:101626000BF0C2EF0BF044A01BEF0BF01DEF0BF01D
:1016360023EF0BF0D89044300109446E25EF0BF0F0
:10164600D890443235A02AEF0BF02CEF0BF02DEF9B
:101656000BF0448E38343832373236323532432A3C
:10166600C2EF0BF03950355C3A5036583B5037587C
:101676003850800A3D6E3C50800A3D58D8B046EF3F
:101686000BF048EF0BF073EF0BF03550395C3D6E05
:1016960036503A583E6E37503B583F6E38503C589D
:1016A600406EFF0E3D24356EFF0E3E20366EFF0E59
:1016B6003F20376EFF0E4020386E800E411A446C74
:1016C6004450D8A469EF0BF06BEF0BF07BEF0BF0F7
:1016D600010E3526000E3622372238227BEF0BF01C
:1016E6003950355E3A50365A3B50375A3C50385A84
:1016F6003550361037103810D8A484EF0BF086EF2B
:101706000BF0BBEF0BF04450D8A48CEF0BF08EEF30
:101716000BF0BBEF0BF0000E356E000E366E000EB2
:10172600376E000E386E56EF0CF0D89035363636DA
:101736003736383644AEA2EF0BF0A4EF0BF0A5EF28
:101746000BF0358044A0AAEF0BF0ACEF0BF0B0EF36
:101756000BF0D8804436B2EF0BF0D89044364350A5
:10176600D8B4B8EF0BF0BAEF0BF0BBEF0BF04306B3
:1017760037AEC0EF0BF0C2EF0BF098EF0BF0000E98
:10178600426E44AEC9EF0BF0CBEF0BF0E3EF0BF07C
:1017960044C03DF07F0E3D16D8B4D4EF0BF0D6EF23
:1017A6000BF0DAEF0BF0010E426EE3EF0BF035A013
:1017B600DFEF0BF0E1EF0BF0E3EF0BF0D6EF0BF002
:1017C6004250D8B4E9EF0BF0EBEF0BF016EF0CF04C
:1017D600010E3526000E36223722382238A0F6EFC3
:1017E6000BF0F8EF0BF016EF0CF035C03DF036C0FD
:1017F6003EF037C03FF038C040F0403440323F3210
:101806003E323D323DC035F03EC036F03FC037F087
:1018160040C038F04328D8B413EF0CF015EF0CF0A5
:1018260016EF0CF0432A4328D8B41CEF0CF01EEF39
:101836000CF026EF0CF04350D8A424EF0CF026EF62
:101846000CF038EF0CF0000E356E000E366E000E02
:10185600376E000E386E4350D8A434EF0CF036EFD6
:101866000CF038EF0CF0000E416E43A03DEF0CF08B
:101876003FEF0CF042EF0CF0378E43EF0CF0379E43
:10188600D8904330386E41AE4BEF0CF04DEF0CF074
:101896004EEF0CF0388E35C035F036C036F037C016
:1018A60037F038C038F012001250800B1B6E125001
:1018B6001224216E11AE62EF0CF064EF0CF065EFAE
:1018C6000CF021802150D8B46BEF0CF06DEF0CF0CA
:1018D60080EF0CF02128D8A473EF0CF075EF0CF014
:1018E6007DEF0CF0000E0F6E000E106E000E116EE6
:1018F600000E126E118E88EF0CF0000E0F6E000EA9
:10190600106E000E116E000E126E1650800B1B1A12
:1019160016501624206E15AE93EF0CF095EF0CF0D2
:1019260096EF0CF020802050D8B49CEF0CF09EEF80
:101936000CF0B1EF0CF02028D8A4A4EF0CF0A6EF21
:101946000CF0AEEF0CF0000E136E000E146E000ECF
:10195600156E000E166E158EB9EF0CF0000E136E96
:10196600000E146E000E156E000E166E2050D8B4C2
:10197600BFEF0CF0C1EF0CF0C9EF0CF02150D8A46A
:10198600C7EF0CF0C9EF0CF0D3EF0CF0000E0F6EA2
:10199600000E106E000E116E000E126E6BEF0EF042
:1019A60015500F02F3CF26F0F4CF27F026501C6E09
:1019B6001D6A1E6A1F6A2750226E236A246A256AD8
:1019C60014501002F3CF26F0F4CF27F026501C2631
:1019D600000E1D221E221F2227502226000E232221
:1019E6002422252213501102F3CF26F0F4CF27F03C
:1019F60026501C26000E1D221E221F22275022269C
:101A0600000E2322242225221EC01FF01DC01EF018
:101A16001CC01DF01C6A13501002F3CF26F0F4CF41
:101A260027F026501C2627501D22000E1E22000ECF
:101A36001F2214500F02F3CF26F0F4CF27F02650C2
:101A46001C2627501D22000E1E22000E1F221EC01D
:101A56001FF01DC01EF01CC01DF01C6A13500F02A3
:101A6600F3CF26F0F4CF27F026501C2627501D2250
:101A7600000E1E22000E1F2215501002F3CF26F074
:101A8600F4CF27F02650222627502322000E2422A8
:101A9600000E252214501102F3CF26F0F4CF27F0C2
:101AA6002650222627502322000E2422000E25220D
:101AB60015501102F3CF26F0F4CF27F02650176EFB
:101AC6002750186E196A1A6A19C01AF018C019F048
:101AD60017C018F0176A17502226185023221950DB
:101AE60024221A5025221CC017F01DC018F01EC053
:101AF60019F01FC01AF0190E86EF0DF0D8901A32A1
:101B0600193218321732E82E81EF0DF017502226BF
:101B160018502322195024221A5025221EC01FF0C5
:101B26001DC01EF01CC01DF01C6A205021C017F0FD
:101B3600186A1726000E1822820E1724266EFF0E2C
:101B46001820276EBCEF0DF0D890223623362436A7
:101B560025361FAEB1EF0DF0B3EF0DF0B4EF0DF07B
:101B66002280D8901C361D361E361F362606D8A073
:101B7600270624AEC1EF0DF0C3EF0DF0A7EF0DF071
:101B8600000E206E1FAECAEF0DF0CCEF0DF0F0EF99
:101B96000DF0FF0E1C14176EFF0E1D14186EFF0EAF
:101BA6001E14196E7F0E1F141A6E17501810191076
:101BB6001A10D8B4E1EF0DF0E3EF0DF0E7EF0DF0FA
:101BC600010E206EF0EF0DF022A0ECEF0DF0EEEF1F
:101BD6000DF0F0EF0DF0E3EF0DF02050D8B4F6EF76
:101BE6000DF0F8EF0DF01CEF0EF0010E2226000EA0
:101BF60023222422252225A003EF0EF005EF0EF066
:101C06001CEF0EF022C017F023C018F024C019F004
:101C160025C01AF01A341A3219321832173217C080
:101C260022F018C023F019C024F01AC025F0264A65
:101C3600272A27BE27EF0EF0275008E12628D8A02E
:101C460027EF0EF029EF0EF033EF0EF0000E226EA6
:101C5600000E236E800E246E7F0E256E61EF0EF051
:101C660027BE40EF0EF0275006E12604D8B03EEF1F
:101C76000EF040EF0EF04CEF0EF0000E226E000E4E
:101C8600236E000E246E000E256E000E1B6E61EF95
:101C96000EF026C021F0FF0E2216FF0E23167F0E31
:101CA6002416000E251621A05BEF0EF05DEF0EF058
:101CB6005EEF0EF0248ED8902130256E1B50251233
:101CC60022C00FF023C010F024C011F025C012F07E
:101CD6001200306E30BE74EF0EF072EF0EF074EF3D
:101CE6000FF0306C3050800A120FD8A07DEF0EF046
:101CF6007FEF0EF008EF0FF0000E0A6E0A0E096E67
:101D0600000E046E640E036E3050016E026A01BE50
:101D1600020618EC17F001C007F002C008F0B6EC96
:101D260016F0090E07260750040D350EF324F66E3D
:101D3600080EF420F76E0900F5CF13F00900F5CF71
:101D460014F00900F5CF15F00A00F5CF16F0000ED5
:101D56000A6E640E096E3050076E086A07BE0806E2
:101D6600B6EC16F0120E07260750040D350EF324B6
:101D7600F66E080EF420F76E0900F5CF0FF0090095
:101D8600F5CF10F00900F5CF11F00A00F5CF12F0EB
:101D960057EC0CF00FC02CF010C02DF011C02EF037
:101DA60012C02FF02CC00FF02DC010F02EC011F075
:101DB6002FC012F0000E046E0A0E036E3050016E34
:101DC600026A01BE020618EC17F00150040D350E2A
:101DD600F324F66E080EF420F76E0900F5CF13F023
:101DE6000900F5CF14F00900F5CF15F00A00F5CF7C
:101DF60016F057EC0CF00FC028F010C029F011C0F7
:101E06002AF012C02BF071EF10F03050800A750FD7
:101E1600D8A010EF0FF012EF0FF05EEF0FF0000EEC
:101E26000A6E0A0E096E3050076E086A07BE08066B
:101E3600B6EC16F0090E07260750040D350EF324EE
:101E4600F66E080EF420F76E0900F5CF0FF00900C4
:101E5600F5CF10F00900F5CF11F00A00F5CF12F01A
:101E6600000E046E0A0E036E3050016E026A01BE49
:101E7600020618EC17F00150040D350EF324F66E29
:101E8600080EF420F76E0900F5CF13F00900F5CF20
:101E960014F00900F5CF15F00A00F5CF16F057EC4F
:101EA6000CF00FC028F010C029F011C02AF012C0A3
:101EB6002BF071EF10F03050040D350EF324F66E52
:101EC600080EF420F76E0900F5CF28F00900F5CFCB
:101ED60029F00900F5CF2AF00A00F5CF2BF071EFB3
:101EE60010F03050800A120FD8A07CEF0FF07EEF72
:101EF6000FF007EF10F0000E0A6E0A0E096E000EC4
:101F0600046E640E036E3050016E026A01BE020654
:101F160018EC17F001C007F002C008F0B6EC16F096
:101F2600090E07260750040D010EF324F66E080E5F
:101F3600F420F76E0900F5CF13F00900F5CF14F081
:101F46000900F5CF15F00A00F5CF16F0000E0A6E5F
:101F5600640E096E3050076E086A07BE0806B6ECB6
:101F660016F0120E07260750040D010EF324F66E26
:101F7600080EF420F76E0900F5CF0FF00900F5CF33
:101F860010F00900F5CF11F00A00F5CF12F057EC6A
:101F96000CF00FC02CF010C02DF011C02EF012C0A6
:101FA6002FF02CC00FF02DC010F02EC011F02FC056
:101FB60012F0000E046E0A0E036E3050016E026AB5
:101FC60001BE020618EC17F00150040D010EF324B1
:101FD600F66E080EF420F76E0900F5CF13F009002F
:101FE600F5CF14F00900F5CF15F00A00F5CF16F07D
:101FF60057EC0CF00FC028F010C029F011C02AF0E1
:1020060012C02BF071EF10F03050800A750FD8A077
:102016000FEF10F011EF10F05DEF10F0000E0A6EEA
:102026000A0E096E3050076E086A07BE0806B6EC3F
:1020360016F0090E07260750040D010EF324F66E5E
:10204600080EF420F76E0900F5CF0FF00900F5CF62
:1020560010F00900F5CF11F00A00F5CF12F0000ECE
:10206600046E0A0E036E3050016E026A01BE02064D
:1020760018EC17F00150040D010EF324F66E080E4D
:10208600F420F76E0900F5CF13F00900F5CF14F030
:102096000900F5CF15F00A00F5CF16F057EC0CF055
:1020A6000FC028F010C029F011C02AF012C02BF082
:1020B60071EF10F03050040D010EF324F66E080E89
:1020C600F420F76E0900F5CF28F00900F5CF29F0C6
:1020D6000900F5CF2AF00A00F5CF2BF01200346E76
:1020E6006D0E346479EF10F07BEF10F028EF11F0ED
:1020F600000E136E000E146E000E156E3F0E166E59
:10210600000E096E640E086E34C006F0076AA1EC74
:1021160018F0D89006360736D89006360736480E99
:102126000626000E0722350E0624F66E080E072038
:10213600F76E0900F5CF0FF00900F5CF10F0090092
:10214600F5CF11F00A00F5CF12F057EC0CF00FC0E6
:1021560030F010C031F011C032F012C033F0000E72
:10216600096E0A0E086E000E046E640E036E34C00D
:1021760001F0026ADBEC18F001C006F002C007F0BD
:10218600A1EC18F0D89006360736D89006360736F2
:10219600240E0626000E0722350E0624F66E080EBD
:1021A6000720F76E0900F5CF13F00900F5CF14F0FC
:1021B6000900F5CF15F00A00F5CF16F030C00FF084
:1021C60031C010F032C011F033C012F057EC0CF0F1
:1021D6000FC02CF010C02DF011C02EF012C02FF041
:1021E6002CC00FF02DC010F02EC011F02FC012F031
:1021F600000E046E0A0E036E34C001F0026ADBECB8
:1022060018F0D89001360236D89001360236350ECF
:102216000124F66E080E0220F76E0900F5CF13F0C2
:102226000900F5CF14F00900F5CF15F00A00F5CF37
:1022360016F057EC0CF00FC028F010C029F011C0B2
:102246002AF012C02BF0C2EF11F00A0E34642EEF02
:1022560011F030EF11F09CEF11F0000E136E000E2E
:10226600146E000E156E3F0E166E000E096E0A0EE7
:10227600086E34C006F0076AA1EC18F0D89006364E
:102286000736D89006360736240E0626000E072295
:10229600350E0624F66E080E0720F76E0900F5CFF8
:1022A6000FF00900F5CF10F00900F5CF11F00A0084
:1022B600F5CF12F057EC0CF00FC030F010C031F033
:1022C60011C032F012C033F030C00FF031C010F040
:1022D60032C011F033C012F0000E046E0A0E036E07
:1022E60034C001F0026ADBEC18F0D89001360236F1
:1022F600D89001360236350E0124F66E080E0220FD
:10230600F76E0900F5CF13F00900F5CF14F00900B8
:10231600F5CF15F00A00F5CF16F057EC0CF00FC00C
:1023260028F010C029F011C02AF012C02BF0C2EF1D
:1023360011F03450040D350EF324F66E080EF42019
:10234600F76E0900F5CF0FF00900F5CF10F0090080
:10235600F5CF11F00A00F5CF12F0000E136E000E45
:10236600146E000E156E3F0E166E57EC0CF00FC075
:1023760028F010C029F011C02AF012C02BF012006C
:10238600600ED36E929693869398948C948E000EDC
:10239600956E0DEC1AF0FFEC19F0F4EC19F0910EB5
:1023A600056E080E066E0DEC19F0000ED76E000EC7
:1023B600D66E8A88070E596E7D0EE82EFED7592EE8
:1023C600FCD700F08A9881A6EBEF11F0EDEF11F043
:1023D600E6EF11F0D58E81B6F3EF11F0F5EF11F0BF
:1023E600EEEF11F0D59ED6CFA1F0D7CFA2F0A1C0C7
:1023F60001F0A2C002F0000E02BEFF0E036E046ED4
:10240600010E00EC13F001C00FF002C010F003C083
:1024160011F004C012F0960E136E430E146E8B0E5E
:10242600156E3C0E166E57EC0CF00FC05AF010C02D
:102436005BF011C05CF012C05DF0810E4D6E000EB7
:102446004E6EAE0E4F6E080E506E5AC051F05BC007
:1024560052F05CC053F05DC054F063EC04F0810EA2
:10246600056E000E066E0DEC19F05AC001F05BC049
:1024760002F05CC003F05DC004F0000E056E000EB5
:10248600066E200E076E410E086E34EC16F0D8B0BC
:102496004FEF12F051EF12F05EEF12F089A656EFF1
:1024A60012F059EF12F089865AEF12F08996010E52
:1024B6008C6E5FEF12F089965AC001F05BC002F095
:1024C6005CC003F05DC004F0000E056E000E066EE3
:1024D600200E076E410E086E34EC16F0D8A076EF8B
:1024E60012F078EF12F08AEF12F05AC001F05BC0DA
:1024F60002F05CC003F05DC004F0000E056E000E35
:10250600066EA00E076E410E086E34EC16F05AC029
:1025160001F05BC002F05CC003F05DC004F0000E89
:10252600056E000E066EA00E076E410E086E34ECA8
:1025360016F0D8A0A1EF12F0A3EF12F0B5EF12F04B
:102546005AC001F05BC002F05CC003F05DC004F04D
:10255600000E056E000E066EF00E076E410E086E3A
:1025660034EC16F05AC001F05BC002F05CC003F018
:102576005DC004F0000E056E000E066EF00E076ECE
:10258600410E086E34EC16F0D8A0CCEF12F0CEEF68
:1025960012F0E0EF12F05AC001F05BC002F05CC02E
:1025A60003F05DC004F0000E056E000E066E200EF0
:1025B600076E420E086E34EC16F05AC001F05BC08E
:1025C60002F05CC003F05DC004F0000E056E000E64
:1025D600066E200E076E420E086E34EC16F0640E80
:1025E6000F6E000E106E000E116E000E126E17ECBE
:1025F60018F0D8EF11F007EF00F0096E0950D8B4C3
:1026060007EF13F009EF13F02BEF13F004BE10EFF2
:1026160013F00EEF13F02BEF13F001C005F002C01C
:1026260006F003C007F004C008F0051E061E071ECC
:10263600081E052A000E06220722082205C00BF0F6
:1026460006C00CF007C00DF008C00EF033EF13F013
:1026560001C00BF002C00CF003C00DF004C00EF078
:102666000150021003100410D8A43CEF13F03EEF03
:1026760013F048EF13F0000E016E000E026E000E0E
:10268600036E000E046ED9EF13F0960E0A6E52EF2B
:1026960013F00A2AD8900E320D320C320B32000E8D
:1026A6000B14056E000E0C14066E000E0D14076E4C
:1026B600FE0E0E14086E0550061007100810D8A45A
:1026C60067EF13F069EF13F04CEF13F077EF13F0A9
:1026D6000A2A010E0B26000E0C220D220E22D8907D
:1026E6000E320D320C320B32000E0B14056E000E3C
:1026F6000C14066E000E0D14076EFF0E0E14086EF7
:102706000550061007100810D8A48CEF13F08EEFB2
:1027160013F06BEF13F096EF13F00A06D8900B3612
:102726000C360D360E360DBE9BEF13F09DEF13F0F3
:10273600A5EF13F0020E0A60A3EF13F0A5EF13F056
:1027460090EF13F00AB0AAEF13F0ACEF13F0ADEF71
:1027560013F00D9ED8900A320AC005F0066A076A81
:10276600086A05C008F0076A066A056A05500B1272
:1027760006500C1207500D1208500E120950D8B40C
:10278600C7EF13F0C9EF13F0D1EF13F004BED0EF8B
:1027960013F0CEEF13F0D1EF13F00E8E0BC001F055
:1027A6000CC002F00DC003F00EC004F0120003C00E
:1027B60009F00A6A0B6A0234093601E30A800950F5
:1027C600116E1150D8A4EAEF13F0ECEF13F0F6EF08
:1027D60013F0000E016E000E026E000E036E000E68
:1027E600046E84EF14F007C009F00A6A0B6A063417
:1027F600093601E30A800950106E1050D8A406EF7E
:1028060014F008EF14F00AEF14F0ECEF13F0028E58
:10281600FF0E0116FF0E0216000E0316068EFF0EA1
:102826000516FF0E0616000E0716000E0C6E000E9D
:102836000D6E000E0E6E000E0F6E7F0E115E1050A6
:10284600980F115E180E106ED8900C360D360E3697
:102856000F360550015C0650025807500358D8A0A1
:1028660037EF14F039EF14F040EF14F00550015E25
:102876000650025A0750035A0C80D8900136023689
:102886000336102E27EF14F011BE4EEF14F04CEF66
:1028960014F064EF14F01150800A970FD8B056EF79
:1028A60014F058EF14F05AEF14F0ECEF13F0D89040
:1028B6000F320E320D320C32113E5AEF14F07CEF0D
:1028C60014F0170E11646AEF14F06CEF14F074EF45
:1028D60014F0ECEF13F0D8900C360D360E360F369A
:1028E60011061150D8A47AEF14F07CEF14F06EEFB5
:1028F60014F00CC001F00DC002F00EC003F00FC0C2
:1029060004F01200033404340E6E0E50D8A48EEF79
:1029160014F090EF14F09AEF14F0000E016E000E12
:10292600026E000E036E000E046E2AEF15F00734D9
:1029360008340D6E0D50D8A4A3EF14F0A5EF14F0D3
:10294600A7EF14F090EF14F0038EFF0E0116FF0EA2
:102956000216FF0E0316000E0416078EFF0E05164E
:10296600FF0E0616FF0E0716000E0816000E096E5D
:10297600000E0A6E000E0B6E000E0C6E7F0E0E5EC3
:102986000D50A00F0E5E200E0D6ED89009360A3639
:102996000B360C360550015C06500258075003589A
:1029A60008500458D8A0DAEF14F0DCEF14F0E5EF85
:1029B60014F00550015E0650025A0750035A08509B
:1029C600045A0980D89001360236033604360D2E95
:1029D600C8EF14F00EBEF4EF14F0F2EF14F00AEFA5
:1029E60015F00E50800A9F0FD8B0FCEF14F0FEEFE2
:1029F60014F000EF15F090EF14F0D8900C320B3273
:102A06000A3209320E3E00EF15F022EF15F01F0EC6
:102A16000E6410EF15F012EF15F01AEF15F090EFA7
:102A260014F0D89009360A360B360C360E060E50C0
:102A3600D8A420EF15F022EF15F014EF15F009C019
:102A460001F00AC002F00BC003F00CC004F0120043
:102A5600000E0A6E08BE34EF15F032EF15F03EEFA9
:102A660015F0081E071E061E056C000E062207221C
:102A76000822010E0A6E04BE45EF15F043EF15F06D
:102A86004FEF15F0041E031E021E016C000E0222FB
:102A960003220422010E0A1A000E0B6E000E0C6EA3
:102AA600000E0D6E000E0E6E055006100710081073
:102AB600D8B460EF15F062EF15F098EF15F0010E3F
:102AC600096E6CEF15F0D8900536063607360836CF
:102AD600092A08AE71EF15F073EF15F066EF15F0E1
:102AE600D8900B360C360D360E360550015C065066
:102AF60002580750035808500458D8A085EF15F01F
:102B060087EF15F090EF15F00550015E0650025A5A
:102B16000750035A0850045A0B80D89008320732DF
:102B260006320532092E73EF15F00A50D8B49EEF1F
:102B360015F0A0EF15F0A8EF15F00E1E0D1E0C1ED9
:102B46000B6C000E0C220D220E220BC001F00CC0E5
:102B560002F00DC003F00EC004F01200333434341A
:102B66003A6E3A50D8A4BAEF15F0BCEF15F0C6EF9E
:102B760015F0000E316E000E326E000E336E000E32
:102B8600346E33EF16F031C035F032C036F033C054
:102B960037F034C038F0200ED6EF15F0D890383222
:102BA600373236323532E82ED1EF15F03550396EE0
:102BB600338EFF0E3116FF0E3216FF0E3316000E41
:102BC6003416960E3A5E3ABEEDEF15F0EBEF15F0C1
:102BD60003EF16F03A50800A970FD8B0F5EF15F0CC
:102BE600F7EF15F0F9EF15F0BCEF15F0D890343289
:102BF6003332323231323A3EF9EF15F01BEF16F02E
:102C06001F0E3A6409EF16F00BEF16F013EF16F0ED
:102C1600BCEF15F0D89031363236333634363A06B4
:102C26003A50D8A419EF16F01BEF16F00DEF16F078
:102C36003950D8B421EF16F023EF16F02BEF16F02B
:102C4600341E331E321E316C000E322233223422E1
:102C560031C031F032C032F033C033F034C034F01A
:102C66001200000E0114096E000E02140A6E800E88
:102C760003140B6E7F0E04140C6E09500A100B1011
:102C86000C10D8A449EF16F04BEF16F053EF16F0E0
:102C9600000E016E000E026E000E036E000E046E34
:102CA600000E0514096E000E06140A6E800E071437
:102CB6000B6E7F0E08140C6E09500A100B100C10C8
:102CC600D8A468EF16F06AEF16F072EF16F0000E51
:102CD600056E000E066E000E076E000E086E04AE40
:102CE60077EF16F079EF16F082EF16F0016C021E00
:102CF600D8B0022A031ED8B0032A800E045608AEA6
:102D060087EF16F089EF16F092EF16F0056C061EA7
:102D1600D8B0062A071ED8B0072A800E0856000E1D
:102D2600011A000E021A000E031A800E041A000E73
:102D3600051A000E061A000E071A800E081A05500C
:102D4600015C065002580750035808500458D8B082
:102D5600AFEF16F0B1EF16F0B4EF16F0D890B5EF6E
:102D660016F0D8801200000E0C6E0ABEBFEF16F0E9
:102D7600BDEF16F0C5EF16F0096C0A1ED8B00A2A88
:102D8600010E0C6E08BECCEF16F0CAEF16F0D2EFAD
:102D960016F0076C081ED8B0082A010E0C1A000E91
:102DA6000E6E000E0D6E09500A10D8B4DDEF16F047
:102DB600DFEF16F007EF17F0010E0B6EE7EF16F0D8
:102DC600D89009360A360B2A0AAEECEF16F0EEEF6B
:102DD60016F0E3EF16F0D8900D360E360950075C64
:102DE6000A500858D8A0FAEF16F0FCEF16F001EFDB
:102DF60017F00950075E0A50085A0D80D8900A321B
:102E060009320B2EEEEF16F00C50D8B40DEF17F07A
:102E16000FEF17F013EF17F00D6C0E1ED8B00E2A39
:102E26000DC007F00EC008F01200000E066E02BEBE
:102E360021EF17F01FEF17F027EF17F0016C021EB6
:102E4600D8B0022A010E066E04BE2EEF17F02CEF44
:102E560017F032EF17F0036C041ED8B0042A0350A3
:102E66000410D8B439EF17F03BEF17F05FEF17F007
:102E7600010E056E43EF17F0D89003360436052A87
:102E860004AE48EF17F04AEF17F03FEF17F0035084
:102E9600015C04500258D8A053EF17F055EF17F015
:102EA60059EF17F00350015E0450025AD8900432CD
:102EB6000332052E4AEF17F00650D8B465EF17F027
:102EC60067EF17F06BEF17F0016C021ED8B0022AFD
:102ED60001C001F002C002F01200000E0114096EDA
:102EE600000E02140A6E800E03140B6E7F0E04147D
:102EF6000C6E09500A100B100C10D8A485EF17F0B1
:102F060087EF17F08FEF17F0000E016E000E026EBE
:102F1600000E036E000E046E000E0514096E000E00
:102F260006140A6E800E07140B6E7F0E08140C6EC4
:102F360009500A100B100C10D8A4A4EF17F0A6EF36
:102F460017F0AEEF17F0000E056E000E066E000EBF
:102F5600076E000E086E055001180FE106500218A4
:102F66000CE10750031809E108500418D8B4BEEF65
:102F760017F0C0EF17F0C3EF17F0D890C4EF17F0B3
:102F8600D8801200000E096E000E0A6E000E0B6E3F
:102F9600000E0C6E0550061007100810D8B4D6EFB8
:102FA60017F0D8EF17F00EEF18F0010E0D6EE2EFE6
:102FB60017F0D89005360636073608360D2A08AEBD
:102FC600E7EF17F0E9EF17F0DCEF17F0D8900936C6
:102FD6000A360B360C360550015C0650025807506F
:102FE600035808500458D8A0FBEF17F0FDEF17F070
:102FF60006EF18F00550015E0650025A0750035AB4
:103006000850045A0980D890083207320632053231
:103016000D2EE9EF17F009C001F00AC002F00BC04F
:1030260003F00CC004F012000FC001F010C002F053
:1030360011C003F012C004F00A0E056E000E066EF3
:10304600000E076E000E086E2BEC15F001C00FF097
:1030560002C010F003C011F004C012F0010E146E8D
:10306600000E156E000E166E000E176E49EF18F064
:10307600410E136EEE0EE82EFED7132EFCD700D0AF
:10308600010E1426000E15221622172214500F5C6C
:1030960015501058165011581250800A136E1750BA
:1030A600800A1358D8B05AEF18F05CEF18F03BEFCF
:1030B60018F012000550061007100810D8B466EF75
:1030C60018F068EF18F098EF18F0010E096E72EF1D
:1030D60018F0D8900536063607360836092A08AE9F
:1030E60077EF18F079EF18F06CEF18F00550015CE7
:1030F600065002580750035808500458D8A086EFC7
:1031060018F088EF18F090EF18F00550015E0650A1
:10311600025A0750035A0850045AD8900832073208
:1031260006320532092E79EF18F001C001F002C00F
:1031360002F003C003F004C004F01200000E0B6E90
:10314600000E0A6E08500910D8B4ACEF18F0AEEFB6
:1031560018F0D6EF18F0010E0C6EB6EF18F0D890F6
:10316600083609360C2A09AEBBEF18F0BDEF18F089
:10317600B2EF18F0D8900A360B360850065C0950A4
:103186000758D8A0C9EF18F0CBEF18F0D0EF18F019
:103196000850065E0950075A0A80D890093208324C
:1031A6000C2EBDEF18F00AC006F00BC007F0120097
:1031B60003500410D8B4E2EF18F0E4EF18F008EF6B
:1031C60019F0010E056EECEF18F0D89003360436B0
:1031D600052A04AEF1EF18F0F3EF18F0E8EF18F057
:1031E6000350015C04500258D8A0FCEF18F0FEEF23
:1031F60018F002EF19F00350015E0450025AD890FD
:1032060004320332052EF3EF18F001C001F002C0BC
:1032160002F01200000E0A6E05C001F006C002F0B0
:103226003CEC19F00150096E32EF19F00A500524F2
:10323600076E000E0620086E07C0F6FF08C0F7FFEF
:10324600F86A070EF76403D00800F55005D0F6CFEC
:10325600E9FFF7CFEAFFEF50BBEC19F00A2A095055
:103266000A5CD8A039EF19F03BEF19F019EF19F005
:10327600120001C003F002C004F044EF19F0034A43
:10328600042A03C0F6FF04C0F7FFF86A070EF764C6
:1032960003D00800F55005D0F6CFE9FFF7CFEAFFD7
:1032A600EF500009D8A45AEF19F05CEF19F042EF7D
:1032B60019F00150035C016E02500458026E1200B0
:1032C600000E491A000E4A1A000E4B1A800E4C1AAE
:1032D60045C035F046C036F047C037F048C038F034
:1032E60049C039F04AC03AF04BC03BF04CC03CF004
:1032F600F7EC09F035C045F036C046F037C047F068
:1033060038C048F012000150021003100410D8B45F
:103316008FEF19F091EF19F099EF19F0000E011ADD
:10332600000E021A000E031A800E041A01C001F0E4
:1033360002C002F003C003F004C004F01200036EE2
:10334600000E026E3A0E0360ABEF19F0ADEF19F006
:10335600B7EF19F02F0E0364B3EF19F0B5EF19F0BC
:10336600B7EF19F0010E026E02C001F00130120033
:10337600026E9E9802C0ADFF9EA8C4EF19F0C6EF7C
:1033860019F0BFEF19F0070E016E7D0EE82EFED77D
:10339600012EFCD700F0120001500302F3CF05F016
:1033A600F4CF06F001500402F35006260250030241
:1033B600F350062605C001F006C002F0120000EE2A
:1033C60060F0430EEE6AE806FDE15E6A5D6A5C6ADD
:1033D6005B6A5A6A5F905F92000EF86E0001C3EF57
:1033E60011F0D59CD59AD598D586000ED66E000ECE
:1033F600D76EF294D59E1200900EAB6E240EAC6E74
:10340600190EAF6E12000600AECF80F05E809E9A57
:0E3416005F921100F28EF28C9D8A9D9812003A
:020000040020DA
:08000000FFFFFFFFFFFFFFFF00
:020000040030CA
:0E00000000091F1FFF0185FF0FC00FE00F401A
:00000001FF
