:020000040000FA
:04000000C0EF06F057
:100800000001000A006400E803102748656C6C6F63
:1008100020776F726C64212000436F6E7461646F87
:10082000723A202569200000330E366E000E376EB6
:10083000CCEF04F0250E3C18D8B421EF04F023EFE0
:1008400004F02DEF04F02FC0D9FF30C0DAFF3CC018
:10085000DFFF2F4A302ACCEF04F0000E386E31C093
:10086000F6FF32C0F7FF314A322A0800F5CF3CF0DC
:100870003C50000AD8B4DDEF04F0640AD8B447EF66
:1008800004F00D0AD8B447EF04F0CCEF04F036C002
:10089000D9FF37C0DAFFDECF3AF0DDCF3BF0020EF2
:1008A0003626000E37223BBE5AEF04F058EF04F014
:1008B00060EF04F0030E38123A6C3B1ED8B03B2AAE
:1008C000010E3C6E3C50020D010EF324F66E080E34
:1008D000F420F76E0900F5503A5C0900F5503B58DA
:1008E000D8B075EF04F077EF04F079EF04F083EF00
:1008F00004F03C2A050E3C18D8A481EF04F083EFE5
:1009000004F062EF04F038C035F0030E3516D8B4A9
:100910008CEF04F08EEF04F096EF04F02FC0D9FFB7
:1009200030C0DAFF2D0EDF6E2F4A302A3CC039F07E
:10093000C3EF04F03950020D010EF324F66E080ED9
:10094000F420F76E0900F5CF25F00A00F5CF26F068
:100950003AC023F03BC024F0A1EC05F023C02AF0FC
:1009600024C02BF0000E2D6E0A0E2C6E14EC06F037
:100970002A50300F3C6E2FC0D9FF30C0DAFF3CC088
:10098000DFFF2F4A302A39063928D8A4CAEF04F0ED
:10099000CCEF04F09AEF04F031C0F6FF32C0F7FF5D
:1009A000314A322A0800F5CF3CF03C50D8A4DBEFA6
:1009B00004F0DDEF04F01AEF04F02FC0D9FF30C0CF
:1009C000DAFF000EDF6E1200276E2704D8A4EBEFCB
:1009D00004F0EDEF04F0FEEF04F026507F0F2A6ED6
:1009E0002A380F0B286E2A500F0B296E2850B0ECB6
:1009F00006F02950B0EC06F04CEF05F0020E271877
:100A0000D8A405EF05F007EF05F018EF05F0265024
:100A1000BF0F2A6E2A380F0B286E2A500F0B296E33
:100A20002850B0EC06F02950B0EC06F04CEF05F081
:100A3000030E2718D8A41FEF05F021EF05F032EFC1
:100A400005F02650930F2A6E2A380F0B286E2A5075
:100A50000F0B296E2850B0EC06F02950B0EC06F0D0
:100A60004CEF05F0040E2718D8A439EF05F03BEF42
:100A700005F04CEF05F02650D30F2A6E2A380F0BE5
:100A8000286E2A500F0B296E2850B0EC06F0295022
:100A9000B0EC06F04CEF05F01200600ED36E000EC5
:100AA000956EDBEC05F0130E2F6E000E306E0B0E04
:100AB000316E080E326E14EC04F0010E266E010E3B
:100AC000E4EC04F0130E276E000E286E74EC06F0B2
:100AD000030E2F6E000E306E190E316E080E326E40
:100AE00001C033F002C034F014EC04F0014A022AD1
:100AF000010E266E020EE4EC04F0030E276E000ECB
:100B0000286E74EC06F08CA088EF05F08CEF05F0F1
:100B10003D6A3D2A8DEF05F03D6A8C503D18FE0B75
:100B20003D188C6E030E3E6E8A0E3D6E560EE82EFC
:100B3000FED73D2EFCD73E2EFAD768EF05F000EF2A
:100B400000F0000E286E000E276E25502610D8B437
:100B5000ACEF05F0AEEF05F0D6EF05F0010E296E13
:100B6000B6EF05F0D89025362636292A26AEBBEFFB
:100B700005F0BDEF05F0B2EF05F0D8902736283626
:100B80002550235C26502458D8A0C9EF05F0CBEFA0
:100B900005F0D0EF05F02550235E2650245A27801B
:100BA000D89026322532292EBDEF05F027C023F03C
:100BB00028C024F01200000E46EC06F01A0E266E35
:100BC000F80EE82EFED7262EFCD700D0030EB0EC90
:100BD00006F0070E266E7D0EE82EFED7262EFCD7D9
:100BE00000F0030EB0EC06F00F0E266E480EE82E55
:100BF000FED7262EFCD7030EB0EC06F0020EB0ECAA
:100C000006F0020EB0EC06F0080EB0EC06F0000E96
:100C1000B0EC06F00C0EB0EC06F0000EB0EC06F0F6
:100C2000060EB0EC06F012002C502D10D8B41BEFBD
:100C300006F01DEF06F041EF06F0010E2E6E25EFD7
:100C400006F0D8902C362D362E2A2DAE2AEF06F03F
:100C50002CEF06F021EF06F02C502A5C2D502B587B
:100C6000D8A035EF06F037EF06F03BEF06F02C503A
:100C70002A5E2D502B5AD8902D322C322E2E2CEF4E
:100C800006F02AC02AF02BC02BF01200236E23A0FE
:100C90004CEF06F04EEF06F051EF06F0838852EF6E
:100CA00006F0839823A257EF06F059EF06F05CEFA9
:100CB00006F0838A5DEF06F0839A23A462EF06F0C4
:100CC00064EF06F067EF06F0838C68EF06F0839C14
:100CD00023A66DEF06F06FEF06F072EF06F0838E3D
:100CE00073EF06F0839E1200000E2A6E000E296E2E
:100CF00085EF06F029502724D96E2A502820DA6E75
:100D0000DF5094EC06F0294A2A2A29502724D96E6C
:100D10002A502820DA6EDF50D8A491EF06F093EF26
:100D200006F07AEF06F01200266E26500F0B246EA6
:100D30002650F00B256E838425380F0B46EC06F009
:100D400083860D0EE82EFED700F08396245046ECE5
:100D500006F083860D0EE82EFED700F08396120073
:100D6000256E8394255046EC06F08386060E246E8D
:100D7000300EE82EFED7242EFCD700D0839612002A
:100D800000EE01F0220EEE6AE806FDE1000EF86EBC
:060D900000014DEF05F02B
:020000040020DA
:08000000FFFFFFFFFFFFFFFF00
:020000040030CA
:0E00000000091F1EFF0385FF0FC00FE00F4019
:00000001FF
