:020000040000FA
:0400000063EF0BF0AF
:100800000054656D7065726174757261206D7569F3
:10081000746F20616C74610A0D0053657269616CBC
:1008200020496E696369616C697A616461210A0DAE
:100830000054656D70657261747572612041646504
:1008400071756164610A0D004C4D333520496E6944
:100850006369616C697A61646F210A0D0054656D8A
:1008600070657261747572612042616978610A0D08
:1008700000001250800B1B6E12501224216E11AE1C
:1008800044EF04F046EF04F047EF04F021802150DC
:10089000D8B44DEF04F04FEF04F062EF04F02128DC
:1008A000D8A455EF04F057EF04F05FEF04F0000E0A
:1008B0000F6E000E106E000E116E000E126E118E75
:1008C0006AEF04F0000E0F6E000E106E000E116E37
:1008D000000E126E1650800B1B1A16501624206E36
:1008E00015AE75EF04F077EF04F078EF04F0208098
:1008F0002050D8B47EEF04F080EF04F093EF04F0C2
:100900002028D8A486EF04F088EF04F090EF04F0DC
:10091000000E136E000E146E000E156E000E166E95
:10092000158E9BEF04F0000E136E000E146E000E79
:10093000156E000E166E2050D8B4A1EF04F0A3EF90
:1009400004F0ABEF04F02150D8A4A9EF04F0ABEF12
:1009500004F0B5EF04F0000E0F6E000E106E000EE6
:10096000116E000E126E4DEF06F015500F02F3CF10
:1009700026F0F4CF27F026501C6E1D6A1E6A1F6AEF
:100980002750226E236A246A256A14501002F3CF7E
:1009900026F0F4CF27F026501C26000E1D221E2222
:1009A0001F2227502226000E232224222522135004
:1009B0001102F3CF26F0F4CF27F026501C26000EAC
:1009C0001D221E221F2227502226000E232224220F
:1009D00025221EC01FF01DC01EF01CC01DF01C6A89
:1009E00013501002F3CF26F0F4CF27F026501C2628
:1009F00027501D22000E1E22000E1F2214500F022F
:100A0000F3CF26F0F4CF27F026501C2627501D22C6
:100A1000000E1E22000E1F221EC01FF01DC01EF061
:100A20001CC01DF01C6A13500F02F3CF26F0F4CF48
:100A300027F026501C2627501D22000E1E22000ED5
:100A40001F2215501002F3CF26F0F4CF27F02650C6
:100A5000222627502322000E2422000E2522145085
:100A60001102F3CF26F0F4CF27F02650222627508C
:100A70002322000E2422000E252215501102F3CF4E
:100A800026F0F4CF27F02650176E2750186E196AFB
:100A90001A6A19C01AF018C019F017C018F0176AAE
:100AA0001750222618502322195024221A5025228A
:100AB0001CC017F01DC018F01EC019F01FC01AF09E
:100AC000190E68EF05F0D8901A3219321832173221
:100AD000E82E63EF05F017502226185023221950F4
:100AE00024221A5025221EC01FF01DC01EF01CC05B
:100AF0001DF01C6A205021C017F0186A1726000E3E
:100B00001822820E1724266EFF0E1820276E9EEFE5
:100B100005F0D89022362336243625361FAE93EFC3
:100B200005F095EF05F096EF05F02280D8901C3681
:100B30001D361E361F362606D8A0270624AEA3EF84
:100B400005F0A5EF05F089EF05F0000E206E1FAE51
:100B5000ACEF05F0AEEF05F0D2EF05F0FF0E1C1480
:100B6000176EFF0E1D14186EFF0E1E14196E7F0EE9
:100B70001F141A6E1750181019101A10D8B4C3EF9A
:100B800005F0C5EF05F0C9EF05F0010E206ED2EFBC
:100B900005F022A0CEEF05F0D0EF05F0D2EF05F082
:100BA000C5EF05F02050D8B4D8EF05F0DAEF05F026
:100BB000FEEF05F0010E2226000E2322242225221C
:100BC00025A0E5EF05F0E7EF05F0FEEF05F022C008
:100BD00017F023C018F024C019F025C01AF01A34F9
:100BE0001A3219321832173217C022F018C023F007
:100BF00019C024F01AC025F0264A272A27BE09EF7B
:100C000006F0275008E12628D8A009EF06F00BEFE0
:100C100006F015EF06F0000E226E000E236E800E19
:100C2000246E7F0E256E43EF06F027BE22EF06F0FE
:100C3000275006E12604D8B020EF06F022EF06F098
:100C40002EEF06F0000E226E000E236E000E246EB4
:100C5000000E256E000E1B6E43EF06F026C021F03D
:100C6000FF0E2216FF0E23167F0E2416000E2516E9
:100C700021A03DEF06F03FEF06F040EF06F0248E96
:100C8000D8902130256E1B50251222C00FF023C0B2
:100C900010F024C011F025C012F012002B50800B70
:100CA000386E2B502B243F6E2AAE59EF06F05BEFC7
:100CB00006F05CEF06F03F803F50D8B462EF06F0DC
:100CC00064EF06F079EF06F03F28D8A46AEF06F04B
:100CD0006CEF06F074EF06F0000E286E000E296E21
:100CE000000E2A6E000E2B6E2A8E000E2B6E81EFE8
:100CF00006F0000E286E000E296E000E2A6E000E01
:100D00002B6E2F50800B381A2F502F24406E2EAE92
:100D10008CEF06F08EEF06F08FEF06F0408040502B
:100D2000D8B495EF06F097EF06F0ACEF06F0402848
:100D3000D8A49DEF06F09FEF06F0A7EF06F0000E97
:100D40002C6E000E2D6E000E2E6E000E2F6E2E8E4F
:100D5000000E2F6EB4EF06F0000E2C6E000E2D6EFE
:100D6000000E2E6E000E2F6E2C502D102E102F10F8
:100D7000D8A4BDEF06F0BFEF06F0D7EF06F0000EE7
:100D8000286E000E296E000E2A6E000E2B6E800E4D
:100D90002A127F0E2B1238502B1228C028F029C09F
:100DA00029F02AC02AF02BC02BF01AEF08F03F5090
:100DB000D8A4DDEF06F0DFEF06F0E9EF06F0000E55
:100DC000286E000E296E000E2A6E000E2B6E1AEF92
:100DD00008F040503FC030F0316A305E000E315AAA
:100DE0007F0E3024396E000E31203A6E28C034F068
:100DF00029C035F02AC036F02BC037F0000E286E1F
:100E0000000E296E000E2A6E000E2B6E000E3B6E39
:100E1000000E3C6E000E3D6E000E3E6E000E406EEB
:100E20004AEF07F04050D8B418EF07F01AEF07F078
:100E300031EF07F0D8903436353636363736D8901D
:100E4000283629362A362B363EAE29EF07F02BEF0F
:100E500007F02CEF07F02880D8903B363C363D3623
:100E60003E362C50345C2D5035582E5036582F506D
:100E70003758D8A03EEF07F040EF07F049EF07F0F2
:100E80003E8C2C50345E2D50355A2E50365A2F50F1
:100E9000375A402A190E406450EF07F052EF07F01E
:100EA00012EF07F03450351036103710D8B45BEF1E
:100EB00007F05DEF07F075EF07F03B8075EF07F087
:100EC000D890283629362A362B363EAE6AEF07F000
:100ED0006CEF07F06DEF07F02880D8903B363C367A
:100EE0003D363E363906D8A03A062AAE7AEF07F0EC
:100EF0007CEF07F060EF07F0000E406E3EAE83EF30
:100F000007F085EF07F0A9EF07F0FF0E3B14306EF6
:100F1000FF0E3C14316EFF0E3D14326E7F0E3E14F8
:100F2000336E3050311032103310D8B49AEF07F0CE
:100F30009CEF07F0A0EF07F0010E406EA9EF07F05D
:100F400028A0A5EF07F0A7EF07F0A9EF07F09CEFA7
:100F500007F04050D8B4AFEF07F0B1EF07F0D5EF8E
:100F600007F0010E2826000E29222A222B222BA070
:100F7000BCEF07F0BEEF07F0D5EF07F028C030F068
:100F800029C031F02AC032F02BC033F03334333271
:100F900032323132303230C028F031C029F032C024
:100FA0002AF033C02BF0394A3A2A3ABEE0EF07F074
:100FB0003A5008E13928D8A0E0EF07F0E2EF07F057
:100FC000EDEF07F0000E3A6E3968000E286E000E45
:100FD000296E000E2A6E000E2B6E3ABEFAEF07F055
:100FE0003A5006E13904D8B0F8EF07F0FAEF07F00D
:100FF00008EF08F0000E3A6E000E396E000E286EF3
:10100000000E296E000E2A6E000E2B6E000E386E3A
:1010100039C03FF03FA00FEF08F011EF08F014EFD8
:1010200008F02A8E15EF08F02A9ED8903F302B6EDC
:10103000CBEF06F01200096E0950D8B422EF08F089
:1010400024EF08F046EF08F004BE2BEF08F029EF7C
:1010500008F046EF08F001C005F002C006F003C03A
:1010600007F004C008F0051E061E071E081E052A0C
:10107000000E06220722082205C00BF006C00CF065
:1010800007C00DF008C00EF04EEF08F001C00BF0E5
:1010900002C00CF003C00DF004C00EF001500210AD
:1010A00003100410D8A457EF08F059EF08F063EFCD
:1010B00008F0000E016E000E026E000E036E000EB0
:1010C000046EF4EF08F0960E0A6E6DEF08F00A2A2F
:1010D000D8900E320D320C320B32000E0B14056E0E
:1010E000000E0C14066E000E0D14076EFE0E0E148C
:1010F000086E0550061007100810D8A482EF08F0FB
:1011000084EF08F067EF08F092EF08F00A2A010E6A
:101110000B26000E0C220D220E22D8900E320D321C
:101120000C320B32000E0B14056E000E0C14066E02
:10113000000E0D14076EFF0E0E14086E05500610FB
:1011400007100810D8A4A7EF08F0A9EF08F086EF61
:1011500008F0B1EF08F00A06D8900B360C360D36C1
:101160000E360DBEB6EF08F0B8EF08F0C0EF08F08D
:10117000020E0A60BEEF08F0C0EF08F0ABEF08F017
:101180000AB0C5EF08F0C7EF08F0C8EF08F00D9EF1
:10119000D8900A320AC005F0066A076A086A05C0D4
:1011A00008F0076A066A056A05500B1206500C1211
:1011B00007500D1208500E120950D8B4E2EF08F093
:1011C000E4EF08F0ECEF08F004BEEBEF08F0E9EF15
:1011D00008F0ECEF08F00E8E0BC001F00CC002F02E
:1011E0000DC003F00EC004F01200620ED36E800E2C
:1011F0000F6E250E106E000E116E000E126E010E97
:10120000136E83EC0AF01A0E026E080E036E2BECBE
:101210000BF05AEC0BF0480E026E080E036E2BEC2E
:101220000BF0000E8B6E000E946EEDEC0AF041C0D8
:1012300047F042C048F043C049F044C04AF0000EB5
:10124000016E000E026EC80E036E420E046E47C0A1
:1012500005F048C006F049C007F04AC008F001ECAC
:101260000AF0D8B036EF09F038EF09F042EF09F094
:10127000120E8B6E010E026E080E036E2BEC0BF03D
:1012800015EF09F0000E016E000E026EF00E036EF7
:10129000410E046E47C005F048C006F049C007F093
:1012A0004AC008F001EC0AF0D8B059EF09F05BEF42
:1012B00009F063EF09F0310E026E080E036E2BEC9D
:1012C0000BF069EF09F05D0E026E080E036E2BEC59
:1012D0000BF0000E8B6E020E466E040E456EBA0EBB
:1012E000E82EFED7452EFCD7462EFAD700D015EFB4
:1012F00009F000EF00F0000E0A6E08BE84EF09F05E
:1013000082EF09F08EEF09F0081E071E061E056C1D
:10131000000E062207220822010E0A6E04BE95EF77
:1013200009F093EF09F09FEF09F0041E031E021E5F
:10133000016C000E022203220422010E0A1A000E82
:101340000B6E000E0C6E000E0D6E000E0E6E055034
:10135000061007100810D8B4B0EF09F0B2EF09F08A
:10136000E8EF09F0010E096EBCEF09F0D8900536E0
:10137000063607360836092A08AEC1EF09F0C3EF72
:1013800009F0B6EF09F0D8900B360C360D360E3654
:101390000550015C06500258075003580850045885
:1013A000D8A0D5EF09F0D7EF09F0E0EF09F005502C
:1013B000015E0650025A0750035A0850045A0B8027
:1013C000D8900832073206320532092EC3EF09F0F1
:1013D0000A50D8B4EEEF09F0F0EF09F0F8EF09F099
:1013E0000E1E0D1E0C1E0B6C000E0C220D220E226A
:1013F0000BC001F00CC002F00DC003F00EC004F0F1
:101400001200000E0114096E000E02140A6E800E06
:1014100003140B6E7F0E04140C6E09500A100B108F
:101420000C10D8A416EF0AF018EF0AF020EF0AF01B
:10143000000E016E000E026E000E036E000E046EB2
:10144000000E0514096E000E06140A6E800E0714B5
:101450000B6E7F0E08140C6E09500A100B100C1046
:10146000D8A435EF0AF037EF0AF03FEF0AF0000E8C
:10147000056E000E066E000E076E000E086E04AEBE
:1014800044EF0AF046EF0AF04FEF0AF0016C021E3B
:10149000D8B0022A031ED8B0032A800E045608AE24
:1014A00054EF0AF056EF0AF05FEF0AF0056C061EE3
:1014B000D8B0062A071ED8B0072A800E0856000E9C
:1014C000011A000E021A000E031A800E041A000EF2
:1014D000051A000E061A000E071A800E081A05508B
:1014E000015C065002580750035808500458D8B001
:1014F0007CEF0AF07EEF0AF081EF0AF0D89082EFDD
:101500000AF0D8801200949C948ED9EF0AF0240E31
:10151000AC6E000E016E090E026E3D0E036E000EE3
:10152000046E0FC014F010C015F011C016F012C0F8
:1015300017F0040ED8901436153616361736E82EE6
:101540009AEF0AF014C005F015C006F016C007F0B7
:1015500017C008F07BEC09F00104AF6EEAEF0AF067
:10156000200EAC6E000E016E090E026E3D0E036E73
:10157000000E046E0FC014F010C015F011C016F06C
:1015800012C017F0060ED8901436153616361736D8
:10159000E82EC3EF0AF014C005F015C006F016C01F
:1015A00007F017C008F07BEC09F00104AF6EEAEF1A
:1015B0000AF01350146E156A1550000AD8B4E3EF00
:1015C0000AF0B0EF0AF01450010AD8B487EF0AF01D
:1015D000B0EF0AF0900EAB6E1200C282C2B2F3EF0F
:1015E0000AF0F5EF0AF0EEEF0AF0000E136E000EAF
:1015F000146E160E156E430E166EC3CF01F0C4CFD7
:1016000002F0036A046A000E1BEC08F001C00FF040
:1016100002C010F003C011F004C012F039EC04F065
:101620000FC028F010C029F011C02AF012C02BF012
:10163000000E2C6EC00E2D6E7F0E2E6E440E2F6E81
:101640004EEC06F028C041F029C042F02AC043F019
:101650002BC044F0120002500310D8B432EF0BF04C
:1016600034EF0BF04EEF0BF040EF0BF002C0F6FF43
:1016700003C0F7FF0800F5504FEC0BF0024A032AB5
:1016800002C0F6FF03C0F7FF0800F5500009D8A418
:101690004CEF0BF04EEF0BF036EF0BF01200016E3B
:1016A00001C0ADFF9EA857EF0BF059EF0BF052EFC2
:1016B0000BF01200C150CF0B1009C16E010EC26EAB
:1016C000940EC06E1200000EF86E0001F5EF08F0E7
:020000040020DA
:08000000FFFFFFFFFFFFFFFF00
:020000040030CA
:0E00000000091F1EFF0385FF0FC00FE00F4019
:00000001FF
